{
  "contractName": "Battleship",
  "abi": [
    {
      "inputs": [],
      "payable": false,
      "stateMutability": "nonpayable",
      "type": "constructor"
    },
    {
      "constant": true,
      "inputs": [],
      "name": "numOfPlayers",
      "outputs": [
        {
          "internalType": "uint256",
          "name": "",
          "type": "uint256"
        }
      ],
      "payable": false,
      "stateMutability": "view",
      "type": "function"
    },
    {
      "constant": true,
      "inputs": [
        {
          "internalType": "uint256",
          "name": "",
          "type": "uint256"
        }
      ],
      "name": "plyradd",
      "outputs": [
        {
          "internalType": "address",
          "name": "",
          "type": "address"
        }
      ],
      "payable": false,
      "stateMutability": "view",
      "type": "function"
    },
    {
      "constant": true,
      "inputs": [],
      "name": "gamestate",
      "outputs": [
        {
          "internalType": "uint256",
          "name": "",
          "type": "uint256"
        }
      ],
      "payable": false,
      "stateMutability": "view",
      "type": "function"
    },
    {
      "constant": true,
      "inputs": [
        {
          "internalType": "uint256",
          "name": "ind",
          "type": "uint256"
        }
      ],
      "name": "setgamestate",
      "outputs": [],
      "payable": false,
      "stateMutability": "view",
      "type": "function"
    },
    {
      "constant": false,
      "inputs": [],
      "name": "iniadd",
      "outputs": [
        {
          "internalType": "uint256",
          "name": "",
          "type": "uint256"
        }
      ],
      "payable": false,
      "stateMutability": "nonpayable",
      "type": "function"
    },
    {
      "constant": true,
      "inputs": [],
      "name": "currply",
      "outputs": [
        {
          "internalType": "uint256",
          "name": "",
          "type": "uint256"
        }
      ],
      "payable": false,
      "stateMutability": "view",
      "type": "function"
    },
    {
      "constant": true,
      "inputs": [],
      "name": "addtoid",
      "outputs": [
        {
          "internalType": "uint256",
          "name": "",
          "type": "uint256"
        }
      ],
      "payable": false,
      "stateMutability": "view",
      "type": "function"
    },
    {
      "constant": false,
      "inputs": [],
      "name": "donesetup",
      "outputs": [
        {
          "internalType": "string",
          "name": "",
          "type": "string"
        }
      ],
      "payable": false,
      "stateMutability": "nonpayable",
      "type": "function"
    },
    {
      "constant": false,
      "inputs": [],
      "name": "initgame",
      "outputs": [],
      "payable": false,
      "stateMutability": "nonpayable",
      "type": "function"
    },
    {
      "constant": false,
      "inputs": [
        {
          "internalType": "uint256",
          "name": "p",
          "type": "uint256"
        }
      ],
      "name": "clrply",
      "outputs": [],
      "payable": false,
      "stateMutability": "nonpayable",
      "type": "function"
    },
    {
      "constant": true,
      "inputs": [
        {
          "internalType": "uint256",
          "name": "pdx",
          "type": "uint256"
        },
        {
          "internalType": "uint256",
          "name": "index",
          "type": "uint256"
        }
      ],
      "name": "checkSink",
      "outputs": [
        {
          "internalType": "bool",
          "name": "",
          "type": "bool"
        }
      ],
      "payable": false,
      "stateMutability": "view",
      "type": "function"
    },
    {
      "constant": false,
      "inputs": [
        {
          "internalType": "uint256",
          "name": "pdx",
          "type": "uint256"
        },
        {
          "internalType": "uint256",
          "name": "index",
          "type": "uint256"
        }
      ],
      "name": "incrementHit",
      "outputs": [],
      "payable": false,
      "stateMutability": "nonpayable",
      "type": "function"
    },
    {
      "constant": false,
      "inputs": [
        {
          "internalType": "uint256",
          "name": "pdx",
          "type": "uint256"
        }
      ],
      "name": "incrementSink",
      "outputs": [],
      "payable": false,
      "stateMutability": "nonpayable",
      "type": "function"
    },
    {
      "constant": true,
      "inputs": [
        {
          "internalType": "uint256",
          "name": "pdx",
          "type": "uint256"
        }
      ],
      "name": "checkWin",
      "outputs": [
        {
          "internalType": "bool",
          "name": "",
          "type": "bool"
        }
      ],
      "payable": false,
      "stateMutability": "view",
      "type": "function"
    },
    {
      "constant": false,
      "inputs": [
        {
          "internalType": "uint256",
          "name": "pdx",
          "type": "uint256"
        },
        {
          "internalType": "uint256",
          "name": "index",
          "type": "uint256"
        }
      ],
      "name": "applySink",
      "outputs": [],
      "payable": false,
      "stateMutability": "nonpayable",
      "type": "function"
    },
    {
      "constant": true,
      "inputs": [
        {
          "internalType": "uint256",
          "name": "pdx",
          "type": "uint256"
        }
      ],
      "name": "getSetUpComplete",
      "outputs": [
        {
          "internalType": "uint256",
          "name": "",
          "type": "uint256"
        }
      ],
      "payable": false,
      "stateMutability": "view",
      "type": "function"
    },
    {
      "constant": true,
      "inputs": [
        {
          "internalType": "uint256",
          "name": "pdx",
          "type": "uint256"
        }
      ],
      "name": "getSetUpRotate",
      "outputs": [
        {
          "internalType": "uint256",
          "name": "",
          "type": "uint256"
        }
      ],
      "payable": false,
      "stateMutability": "view",
      "type": "function"
    },
    {
      "constant": true,
      "inputs": [
        {
          "internalType": "uint256",
          "name": "pdx",
          "type": "uint256"
        }
      ],
      "name": "getSetUpStage",
      "outputs": [
        {
          "internalType": "uint256",
          "name": "",
          "type": "uint256"
        }
      ],
      "payable": false,
      "stateMutability": "view",
      "type": "function"
    },
    {
      "constant": false,
      "inputs": [
        {
          "internalType": "uint256",
          "name": "pdx",
          "type": "uint256"
        },
        {
          "internalType": "uint256",
          "name": "val",
          "type": "uint256"
        }
      ],
      "name": "setSetUpComplete",
      "outputs": [],
      "payable": false,
      "stateMutability": "nonpayable",
      "type": "function"
    },
    {
      "constant": false,
      "inputs": [
        {
          "internalType": "uint256",
          "name": "pdx",
          "type": "uint256"
        },
        {
          "internalType": "uint256",
          "name": "val",
          "type": "uint256"
        }
      ],
      "name": "setSetUpRotate",
      "outputs": [],
      "payable": false,
      "stateMutability": "nonpayable",
      "type": "function"
    },
    {
      "constant": false,
      "inputs": [
        {
          "internalType": "uint256",
          "name": "pdx",
          "type": "uint256"
        }
      ],
      "name": "incrementSetUpStage",
      "outputs": [],
      "payable": false,
      "stateMutability": "nonpayable",
      "type": "function"
    },
    {
      "constant": false,
      "inputs": [
        {
          "internalType": "uint256",
          "name": "pdx",
          "type": "uint256"
        },
        {
          "internalType": "uint256",
          "name": "x",
          "type": "uint256"
        },
        {
          "internalType": "uint256",
          "name": "y",
          "type": "uint256"
        },
        {
          "internalType": "uint256",
          "name": "val",
          "type": "uint256"
        }
      ],
      "name": "setMap",
      "outputs": [],
      "payable": false,
      "stateMutability": "nonpayable",
      "type": "function"
    },
    {
      "constant": true,
      "inputs": [
        {
          "internalType": "uint256",
          "name": "pdx",
          "type": "uint256"
        }
      ],
      "name": "getMap",
      "outputs": [
        {
          "internalType": "uint256[10][]",
          "name": "",
          "type": "uint256[10][]"
        }
      ],
      "payable": false,
      "stateMutability": "view",
      "type": "function"
    },
    {
      "constant": true,
      "inputs": [
        {
          "internalType": "uint256",
          "name": "pdx",
          "type": "uint256"
        },
        {
          "internalType": "uint256",
          "name": "x",
          "type": "uint256"
        },
        {
          "internalType": "uint256",
          "name": "y",
          "type": "uint256"
        }
      ],
      "name": "getMapAtPos",
      "outputs": [
        {
          "internalType": "uint256",
          "name": "",
          "type": "uint256"
        }
      ],
      "payable": false,
      "stateMutability": "view",
      "type": "function"
    },
    {
      "constant": false,
      "inputs": [
        {
          "internalType": "uint256",
          "name": "pdx",
          "type": "uint256"
        },
        {
          "internalType": "uint256",
          "name": "x",
          "type": "uint256"
        },
        {
          "internalType": "uint256",
          "name": "y",
          "type": "uint256"
        },
        {
          "internalType": "uint256",
          "name": "st",
          "type": "uint256"
        }
      ],
      "name": "setState",
      "outputs": [],
      "payable": false,
      "stateMutability": "nonpayable",
      "type": "function"
    },
    {
      "constant": true,
      "inputs": [
        {
          "internalType": "uint256",
          "name": "pdx",
          "type": "uint256"
        },
        {
          "internalType": "uint256",
          "name": "x",
          "type": "uint256"
        },
        {
          "internalType": "uint256",
          "name": "y",
          "type": "uint256"
        }
      ],
      "name": "getStateAtPos",
      "outputs": [
        {
          "internalType": "uint256",
          "name": "",
          "type": "uint256"
        }
      ],
      "payable": false,
      "stateMutability": "view",
      "type": "function"
    },
    {
      "constant": true,
      "inputs": [
        {
          "internalType": "uint256",
          "name": "pdx",
          "type": "uint256"
        }
      ],
      "name": "getState",
      "outputs": [
        {
          "internalType": "uint256[10][]",
          "name": "",
          "type": "uint256[10][]"
        }
      ],
      "payable": false,
      "stateMutability": "view",
      "type": "function"
    }
  ],
  "bytecode": "0x60806040526006604051908082528060200260200182016040528015620000355781602001602082028038833980820191505090505b50600090805190602001906200004d929190620004d3565b506000600f553480156200006057600080fd5b506000806000815481106200007157fe5b9060005260206000200181905550600560006001815481106200009057fe5b906000526020600020018190555060046000600281548110620000af57fe5b906000526020600020018190555060036000600381548110620000ce57fe5b906000526020600020018190555060036000600481548110620000ed57fe5b9060005260206000200181905550600260006005815481106200010c57fe5b906000526020600020018190555060006002819055506000600f819055506000600c60006101000a81548160ff021916908360038111156200014a57fe5b021790555060026001819055506000600480018190555060006004600501819055506000600460060181905550600160046007018190555060008090505b600a81101562000250576004600201604051806101400160405280600060ff168152602001600060ff168152602001600060ff168152602001600060ff168152602001600060ff168152602001600060ff168152602001600060ff168152602001600060ff168152602001600060ff168152602001600060ff168152509080600181540180825580915050906001820390600052602060002090600a02016000909192909190915090600a6200024092919062000525565b5050808060010191505062000188565b5060008090505b600a8110156200031f576004600101604051806101400160405280600060ff168152602001600060ff168152602001600060ff168152602001600060ff168152602001600060ff168152602001600060ff168152602001600060ff168152602001600060ff168152602001600060ff168152602001600060ff168152509080600181540180825580915050906001820390600052602060002090600a02016000909192909190915090600a6200030f92919062000525565b5050808060010191505062000257565b5060008090505b60068110156200036e57600460030160009080600181540180825580915050906001820390600052602060002001600090919290919091505550808060010191505062000326565b506003600490806001815401808255809150509060018203906000526020600020906008020160009091929091909150600082015481600001556001820181600101908054620003c09291906200056f565b506002820181600201908054620003d99291906200056f565b506003820181600301908054620003f2929190620005db565b506004820154816004015560058201548160050155600682015481600601556007820154816007015550505060036004908060018154018082558091505090600182039060005260206000209060080201600090919290919091506000820154816000015560018201816001019080546200046f9291906200056f565b506002820181600201908054620004889291906200056f565b506003820181600301908054620004a1929190620005db565b5060048201548160040155600582015481600501556006820154816006015560078201548160070155505050620006e2565b82805482825590600052602060002090810192821562000512579160200282015b8281111562000511578251825591602001919060010190620004f4565b5b50905062000521919062000632565b5090565b82600a81019282156200055c579160200282015b828111156200055b578251829060ff1690559160200191906001019062000539565b5b5090506200056b919062000632565b5090565b82805482825590600052602060002090600a028101928215620005c857600052602060002091600a0282015b82811115620005c757828290600a620005b69291906200065a565b5091600a019190600a01906200059b565b5b509050620005d791906200069c565b5090565b8280548282559060005260206000209081019282156200061f5760005260206000209182015b828111156200061e57825482559160010191906001019062000601565b5b5090506200062e919062000632565b5090565b6200065791905b808211156200065357600081600090555060010162000639565b5090565b90565b82600a810192821562000689579182015b82811115620006885782548255916001019190600101906200066b565b5b50905062000698919062000632565b5090565b620006ca91905b80821115620006c65760008181620006bc9190620006cd565b50600a01620006a3565b5090565b90565b5080600a0190620006df919062000632565b50565b61169180620006f26000396000f3fe608060405234801561001057600080fd5b50600436106101a95760003560e01c8063a6355fe1116100f9578063d376028211610097578063ed05c79211610071578063ed05c792146107c7578063f3aa923214610813578063f76567ce1461084b578063faec8e00146108a1576101a9565b8063d376028214610707578063d76f27e614610735578063e9ea48cb14610777576101a9565b8063bb8db7c3116100d3578063bb8db7c314610669578063c4ed65f314610697578063c5f874b1146106cf578063d09bcd78146106fd576101a9565b8063a6355fe1146105c7578063ab49ed2d146105f5578063b0cbc56c1461064b576101a9565b806344c9af28116101665780636c553abc116101405780636c553abc146104b357806390d8474b146104f5578063a35938cf14610513578063a4db625214610581576101a9565b806344c9af281461038b578063509b8b521461042f578063668e3a6a1461047b576101a9565b8063025799f0146101ae57806306f3380b146102525780631605f4a014610270578063201c3845146102f357806331288e24146103115780633d66575314610353575b600080fd5b6101da600480360360208110156101c457600080fd5b81019080803590602001909291905050506108bf565b60405180806020018281038252838181518152602001915080516000925b818410156102415782846020026020010151600a60200280838360005b83811015610230578082015181840152602081019050610215565b5050505090500192600101926101f8565b925050509250505060405180910390f35b61025a61096d565b6040518082815260200191505060405180910390f35b6102786109e3565b6040518080602001828103825283818151815260200191508051906020019080838360005b838110156102b857808201518184015260208101905061029d565b50505050905090810190601f1680156102e55780820380516001836020036101000a031916815260200191505b509250505060405180910390f35b6102fb610acc565b6040518082815260200191505060405180910390f35b61033d6004803603602081101561032757600080fd5b8101908080359060200190929190505050610ad2565b6040518082815260200191505060405180910390f35b6103896004803603604081101561036957600080fd5b810190808035906020019092919080359060200190929190505050610afa565b005b6103b7600480360360208110156103a157600080fd5b8101908080359060200190929190505050610b40565b60405180806020018281038252838181518152602001915080516000925b8184101561041e5782846020026020010151600a60200280838360005b8381101561040d5780820151818401526020810190506103f2565b5050505090500192600101926103d5565b925050509250505060405180910390f35b6104796004803603608081101561044557600080fd5b8101908080359060200190929190803590602001909291908035906020019092919080359060200190929190505050610bee565b005b6104b16004803603604081101561049157600080fd5b810190808035906020019092919080359060200190929190505050610c3c565b005b6104df600480360360208110156104c957600080fd5b8101908080359060200190929190505050610d0a565b6040518082815260200191505060405180910390f35b6104fd610d32565b6040518082815260200191505060405180910390f35b61053f6004803603602081101561052957600080fd5b8101908080359060200190929190505050610e12565b604051808273ffffffffffffffffffffffffffffffffffffffff1673ffffffffffffffffffffffffffffffffffffffff16815260200191505060405180910390f35b6105ad6004803603602081101561059757600080fd5b8101908080359060200190929190505050610e45565b604051808215151515815260200191505060405180910390f35b6105f3600480360360208110156105dd57600080fd5b8101908080359060200190929190505050610e70565b005b6106356004803603606081101561060b57600080fd5b81019080803590602001909291908035906020019092919080359060200190929190505050610ea0565b6040518082815260200191505060405180910390f35b610653610eef565b6040518082815260200191505060405180910390f35b6106956004803603602081101561067f57600080fd5b8101908080359060200190929190505050610ef9565b005b6106cd600480360360408110156106ad57600080fd5b8101908080359060200190929190803590602001909291905050506110e8565b005b6106fb600480360360208110156106e557600080fd5b810190808035906020019092919050505061110f565b005b610705611156565b005b6107336004803603602081101561071d57600080fd5b810190808035906020019092919050505061139d565b005b6107616004803603602081101561074b57600080fd5b810190808035906020019092919050505061147e565b6040518082815260200191505060405180910390f35b6107ad6004803603604081101561078d57600080fd5b8101908080359060200190929190803590602001909291905050506114a6565b604051808215151515815260200191505060405180910390f35b610811600480360360808110156107dd57600080fd5b81019080803590602001909291908035906020019092919080359060200190929190803590602001909291905050506114fc565b005b6108496004803603604081101561082957600080fd5b81019080803590602001909291908035906020019092919050505061154a565b005b61088b6004803603606081101561086157600080fd5b81019080803590602001909291908035906020019092919080359060200190929190505050611571565b6040518082815260200191505060405180910390f35b6108a96115c0565b6040518082815260200191505060405180910390f35b6060600382815481106108ce57fe5b9060005260206000209060080201600101805480602002602001604051908101604052809291908181526020016000905b8282101561096257838290600052602060002090600a0201600a806020026040519081016040528092919082600a801561094e576020028201915b81548152602001906001019080831161093a575b5050505050815260200190600101906108ff565b505050509050919050565b60003373ffffffffffffffffffffffffffffffffffffffff16600d60006002811061099457fe5b0160009054906101000a900473ffffffffffffffffffffffffffffffffffffffff1673ffffffffffffffffffffffffffffffffffffffff1614156109db57600090506109e0565b600190505b90565b60606001600f5401600f8190555060606040518060400160405280601481526020017f6e65787420706c6179657220746f20736574757000000000000000000000000081525090506002600f541415610a43576001600254016002819055505b6004600f541415610ab3576000600f819055506002600c60006101000a81548160ff02191690836003811115610a7557fe5b02179055506040518060400160405280600f81526020017f67616d652073746172746564212121000000000000000000000000000000000081525090505b6002805481610abe57fe5b066002819055508091505090565b60015481565b600060038281548110610ae157fe5b9060005260206000209060080201600701549050919050565b600160038381548110610b0957fe5b90600052602060002090600802016003018281548110610b2557fe5b90600052602060002001600082825401925050819055505050565b606060038281548110610b4f57fe5b9060005260206000209060080201600201805480602002602001604051908101604052809291908181526020016000905b82821015610be357838290600052602060002090600a0201600a806020026040519081016040528092919082600a8015610bcf576020028201915b815481526020019060010190808311610bbb575b505050505081526020019060010190610b80565b505050509050919050565b8060038581548110610bfc57fe5b90600052602060002090600802016001018481548110610c1857fe5b90600052602060002090600a020183600a8110610c3157fe5b018190555050505050565b60008090505b600a811015610d055760008090505b600a811015610cf9578260038581548110610c6857fe5b90600052602060002090600802016001018381548110610c8457fe5b90600052602060002090600a020182600a8110610c9d57fe5b01541415610cee576003808581548110610cb357fe5b90600052602060002090600802016002018381548110610ccf57fe5b90600052602060002090600a020182600a8110610ce857fe5b01819055505b600181019050610c51565b50600181019050610c42565b505050565b600060038281548110610d1957fe5b9060005260206000209060080201600601549050919050565b6000806003811115610d4057fe5b600c60009054906101000a900460ff166003811115610d5b57fe5b1415610d6a5760009050610e0f565b60016003811115610d7757fe5b600c60009054906101000a900460ff166003811115610d9257fe5b1415610da15760019050610e0f565b60026003811115610dae57fe5b600c60009054906101000a900460ff166003811115610dc957fe5b1415610dd85760029050610e0f565b600380811115610de457fe5b600c60009054906101000a900460ff166003811115610dff57fe5b1415610e0e5760039050610e0f565b5b90565b600d8160028110610e1f57fe5b016000915054906101000a900473ffffffffffffffffffffffffffffffffffffffff1681565b6000600560038381548110610e5657fe5b906000526020600020906008020160040154149050919050565b600160038281548110610e7f57fe5b90600052602060002090600802016004016000828254019250508190555050565b600060038481548110610eaf57fe5b90600052602060002090600802016002018381548110610ecb57fe5b90600052602060002090600a020182600a8110610ee457fe5b015490509392505050565b6000600254905090565b600060038281548110610f0857fe5b906000526020600020906008020160040181905550600060038281548110610f2c57fe5b906000526020600020906008020160050181905550600060038281548110610f5057fe5b906000526020600020906008020160060181905550600160038281548110610f7457fe5b90600052602060002090600802016007018190555060008090505b6006811015610fde57600060038381548110610fa757fe5b90600052602060002090600802016003018281548110610fc357fe5b90600052602060002001819055508080600101915050610f8f565b5060008090505b600a8110156110615760008090505b600a8110156110535760006003848154811061100c57fe5b9060005260206000209060080201600201838154811061102857fe5b90600052602060002090600a020182600a811061104157fe5b01819055508080600101915050610ff4565b508080600101915050610fe5565b5060008090505b600a8110156110e45760008090505b600a8110156110d65760006003848154811061108f57fe5b906000526020600020906008020160010183815481106110ab57fe5b90600052602060002090600a020182600a81106110c457fe5b01819055508080600101915050611077565b508080600101915050611068565b5050565b80600383815481106110f657fe5b9060005260206000209060080201600501819055505050565b60016003828154811061111e57fe5b906000526020600020906008020160070154016003828154811061113e57fe5b90600052602060002090600802016007018190555050565b60006002819055506000600c60006101000a81548160ff0219169083600381111561117d57fe5b021790555060026001819055506002600f8190555060008090505b600281101561139a576000600382815481106111b057fe5b9060005260206000209060080201600401819055506000600382815481106111d457fe5b9060005260206000209060080201600501819055506000600382815481106111f857fe5b90600052602060002090600802016006018190555060016003828154811061121c57fe5b90600052602060002090600802016007018190555060008090505b60068110156112865760006003838154811061124f57fe5b9060005260206000209060080201600301828154811061126b57fe5b90600052602060002001819055508080600101915050611237565b5060008090505b600a8110156113095760008090505b600a8110156112fb576000600384815481106112b457fe5b906000526020600020906008020160020183815481106112d057fe5b90600052602060002090600a020182600a81106112e957fe5b0181905550808060010191505061129c565b50808060010191505061128d565b5060008090505b600a81101561138c5760008090505b600a81101561137e5760006003848154811061133757fe5b9060005260206000209060080201600101838154811061135357fe5b90600052602060002090600a020182600a811061136c57fe5b0181905550808060010191505061131f565b508080600101915050611310565b508080600101915050611198565b50565b60008114156113d557600060038111156113b357fe5b600c60009054906101000a900460ff1660038111156113ce57fe5b505061147b565b600181141561140d57600160038111156113eb57fe5b600c60009054906101000a900460ff16600381111561140657fe5b505061147a565b6002811415611445576002600381111561142357fe5b600c60009054906101000a900460ff16600381111561143e57fe5b5050611479565b60038114156114785760038081111561145a57fe5b600c60009054906101000a900460ff16600381111561147557fe5b50505b5b5b5b50565b60006003828154811061148d57fe5b9060005260206000209060080201600501549050919050565b60008082815481106114b457fe5b9060005260206000200154600384815481106114cc57fe5b906000526020600020906008020160030183815481106114e857fe5b906000526020600020015414905092915050565b806003858154811061150a57fe5b9060005260206000209060080201600201848154811061152657fe5b90600052602060002090600a020183600a811061153f57fe5b018190555050505050565b806003838154811061155857fe5b9060005260206000209060080201600601819055505050565b60006003848154811061158057fe5b9060005260206000209060080201600101838154811061159c57fe5b90600052602060002090600a020182600a81106115b557fe5b015490509392505050565b600033600d600254600281106115d257fe5b0160006101000a81548173ffffffffffffffffffffffffffffffffffffffff021916908373ffffffffffffffffffffffffffffffffffffffff160217905550600160025401600281905550600280541415611654576001600c60006101000a81548160ff0219169083600381111561164657fe5b021790555060006002819055505b60025490509056fea265627a7a723158200e8e891865e385f8893a8bcdcd599a6f9126b12321c035c79ac0127c1bdb90c264736f6c634300050c0032",
  "source": "pragma solidity ^0.5.0;\n\ncontract Battleship {\n\n    // defining player structure\n    struct Player {\n      uint _id;\n      uint[10][] map;\n      uint[10][] state;\n      uint[] hitCount;\n      uint sinkCount;\n      uint setUpComplete;\n      uint setUpRotate;\n      uint setUpStage;\n    }\n\n    uint[] shiplen = new uint[](6);\n    enum State { Initial, InitBoard, Game, Done }\n\n    // player[0] : player0 and [1] : player 2\n\n    uint public numOfPlayers;\n    uint currentPlayer;\n    Player[] players;\n    Player plyn;\n    State state;\n    address[2] public plyradd;\n\n    constructor() public{\n       shiplen[0] = 0;\n       shiplen[1] = 5;\n       shiplen[2] = 4;\n       shiplen[3] = 3;\n       shiplen[4] = 3;\n       shiplen[5] = 2;\n       currentPlayer = 0;\n       counter = 0;\n       state = State.Initial;\n       numOfPlayers = 2;\n       plyn.sinkCount = 0;\n        plyn.setUpComplete = 0;\n        plyn.setUpRotate = 0;\n        plyn.setUpStage = 1;\n      for(uint256 i = 0; i<10; i++){\n      // plyn.map.push([0,0,0,0,0,0,0,0,0,0]);\n       plyn.state.push([0,0,0,0,0,0,0,0,0,0]);\n      }\n      for(uint256 i = 0; i<10; i++){\n       plyn.map.push([0,0,0,0,0,0,0,0,0,0]);\n      }\n      for(uint256 i = 0; i<6;i++){\n               plyn.hitCount.push(0);\n           }\n      players.push(plyn);\n      players.push(plyn);\n\n    }\n\n\n    function gamestate() public view returns(uint){\n      if(state == State.Initial){\n        return 0;\n      }\n      if(state == State.InitBoard){\n        return 1;\n      }\n      if(state == State.Game){\n        return 2;\n      }\n      if(state == State.Done){\n        return 3;\n      }\n    }\n\n    function setgamestate(uint ind) public view{\n      if(ind == 0){\n        state == State.Initial;\n      }\n      else if(ind == 1){\n        state == State.InitBoard;\n      }\n      else if(ind == 2){\n        state == State.Game;\n      }\n      else if(ind == 3){\n        state == State.Done;\n      }\n    }\n\n    function iniadd() public returns(uint){\n        plyradd[currentPlayer] = msg.sender;\n        currentPlayer = currentPlayer + 1;\n        if(currentPlayer == 2){\n          state = State.InitBoard;\n          currentPlayer = 0;\n        }\n        return currentPlayer;\n    }\n\n    function currply() public view returns(uint){\n      return currentPlayer;\n    }\n\n    function addtoid() public view returns(uint){\n      if(plyradd[0]==msg.sender){\n        return 0;\n      }\n      else{\n        return 1;\n      }\n    }\n\n    function addinternal(address) internal view returns(uint){\n      if(plyradd[0]==msg.sender){\n        return 0;\n      }\n      else{\n        return 1;\n      }\n    }\n\n    uint counter = 0;\n    function donesetup() public returns(string memory){  \n        counter = counter + 1;\n        string memory mssg = \"next player to setup\";\n        if(counter==2){\n          currentPlayer = currentPlayer + 1;      \n        }\n        if(counter == 4){\n          counter = 0;\n          state = State.Game;\n          mssg = \"game started!!!\";\n        }\n        currentPlayer = currentPlayer%2;\n        return mssg;\n    }\n\n    function nextP() internal{\n        currentPlayer = (currentPlayer + 1)%2;\n    }\n\n   function initgame() public{\n       currentPlayer = 0;\n       state = State.Initial;\n       numOfPlayers = 2;\n       counter = 2;\n       for(uint256 p = 0; p < 2; p++) {\n           players[p].sinkCount = 0;\n           players[p].setUpComplete = 0;\n           players[p].setUpRotate = 0;\n           players[p].setUpStage = 1;\n           for(uint256 i = 0; i<6;i++){\n               players[p].hitCount[i] = 0;\n           }\n           for(uint256 i = 0; i<10; i++){\n             for(uint256 j = 0; j<10;j++)\n             players[p].state[i][j] = 0;\n               // players[p].map[i][j] = 0;\n           }\n           for(uint256 i = 0; i<10; i++){\n             for(uint256 j = 0; j<10;j++)\n             //players[p].state[i][j] = 0;\n                players[p].map[i][j] = 0;\n           }\n       }\n    }\n\n     function clrply(uint p) public{\n           players[p].sinkCount = 0;\n           players[p].setUpComplete = 0;\n           players[p].setUpRotate = 0;\n           players[p].setUpStage = 1;\n           for(uint256 i = 0; i<6;i++){\n               players[p].hitCount[i] = 0;\n           }\n           for(uint256 i = 0; i<10; i++){\n             for(uint256 j = 0; j<10;j++)\n             players[p].state[i][j] = 0;\n               // players[p].map[i][j] = 0;\n           }\n           for(uint256 i = 0; i<10; i++){\n             for(uint256 j = 0; j<10;j++)\n             //players[p].state[i][j] = 0;\n                players[p].map[i][j] = 0;\n           }\n       }\n\n   function checkSink(uint pdx, uint index) public view returns(bool){\n         return players[pdx].hitCount[index] == shiplen[index];\n     }\n  /**\n   * incrementHit(index)\n   * increment the hit count for the ship that got hit\n   * type of ship that got hit\n   */\n\n  function incrementHit(uint pdx, uint index) public {\n    players[pdx].hitCount[index] += 1;\n  }\n\n  /**\n   * incrementSink()\n   * increment the sink count\n  */\n  function incrementSink(uint pdx) public {\n    players[pdx].sinkCount += 1;\n  }\n\n  /**\n   * checkWin()\n   * returns true if sinkCount is 5, congratulations!\n  */\n  function checkWin(uint pdx) public view returns(bool) {\n\n    return players[pdx].sinkCount == 5;\n  }\n\n  /**\n   * applySink(index)\n   * iterate through state and change the value to SUNK\n   */\n  function applySink(uint pdx, uint index) public {\n    for (uint256 i = 0; i < 10; i += 1) {\n      for (uint256 j = 0; j < 10; j += 1) {\n        if (players[pdx].map[i][j] == index) {\n          players[pdx].state[i][j] = 3;\n        }\n      }\n    }\n  }\n\n  function getSetUpComplete(uint pdx) public view returns(uint) {\n    return players[pdx].setUpComplete;\n  }\n\n  function getSetUpRotate(uint pdx) public view returns(uint){\n    return players[pdx].setUpRotate;\n  }\n\n  function getSetUpStage(uint pdx) public view returns(uint){\n    return players[pdx].setUpStage;\n  }\n   //return p;\n\n  function setSetUpComplete(uint pdx, uint val) public{\n    players[pdx].setUpComplete = val;\n  }\n\n  function setSetUpRotate(uint pdx, uint val) public {\n    players[pdx].setUpRotate = val;\n  }\n\n  function incrementSetUpStage(uint pdx) public{\n    players[pdx].setUpStage = players[pdx].setUpStage + 1;\n  }\n\n  function setMap(uint pdx, uint  x, uint  y,uint  val) public{\n    players[pdx].map[x][y] = val;\n  }\n\n  function getMap(uint pdx) public view returns(uint[10][] memory){\n    return players[pdx].map;\n  }\n\n  function getMapAtPos(uint pdx, uint x,uint y) public view returns(uint) {\n    return players[pdx].map[x][y];\n  }\n\n  function setState(uint pdx, uint x,uint y, uint st) public {\n    players[pdx].state[x][y] = st;\n  }\n\n  function getStateAtPos(uint pdx, uint x,uint y) public view returns(uint){\n    return players[pdx].state[x][y];\n  }\n\n  function getState(uint pdx) public view returns(uint[10][] memory){\n    return players[pdx].state;\n  }\n}\n\n",
  "sourcePath": "/Users/illuminati/Battleship-solidity/contracts/Battleship.sol",
  "compiler": {
    "name": "solc",
    "version": "0.5.12+commit.7709ece9.Emscripten.clang"
  },
  "schemaVersion": "3.0.19",
  "updatedAt": "2019-11-30T10:02:15.384Z",
  "networkType": "ethereum",
  "devdoc": {
    "methods": {}
  },
  "userdoc": {
    "methods": {
      "applySink(uint256,uint256)": {
        "notice": "applySink(index) iterate through state and change the value to SUNK"
      },
      "checkWin(uint256)": {
        "notice": "checkWin() returns true if sinkCount is 5, congratulations!"
      },
      "incrementHit(uint256,uint256)": {
        "notice": "incrementHit(index) increment the hit count for the ship that got hit type of ship that got hit"
      },
      "incrementSink(uint256)": {
        "notice": "incrementSink() increment the sink count"
      }
    }
  }
}