{
  "contractName": "Battleship",
  "abi": [
    {
      "constant": true,
      "inputs": [],
      "name": "numOfPlayers",
      "outputs": [
        {
          "name": "",
          "type": "uint256"
        }
      ],
      "payable": false,
      "stateMutability": "view",
      "type": "function"
    },
    {
      "constant": true,
      "inputs": [
        {
          "name": "",
          "type": "uint256"
        }
      ],
      "name": "plyradd",
      "outputs": [
        {
          "name": "",
          "type": "address"
        }
      ],
      "payable": false,
      "stateMutability": "view",
      "type": "function"
    },
    {
      "inputs": [],
      "payable": false,
      "stateMutability": "nonpayable",
      "type": "constructor"
    },
    {
      "constant": true,
      "inputs": [],
      "name": "gamestate",
      "outputs": [
        {
          "name": "",
          "type": "uint256"
        }
      ],
      "payable": false,
      "stateMutability": "view",
      "type": "function"
    },
    {
      "constant": true,
      "inputs": [
        {
          "name": "ind",
          "type": "uint256"
        }
      ],
      "name": "setgamestate",
      "outputs": [],
      "payable": false,
      "stateMutability": "view",
      "type": "function"
    },
    {
      "constant": false,
      "inputs": [],
      "name": "iniadd",
      "outputs": [
        {
          "name": "",
          "type": "uint256"
        }
      ],
      "payable": false,
      "stateMutability": "nonpayable",
      "type": "function"
    },
    {
      "constant": true,
      "inputs": [],
      "name": "currply",
      "outputs": [
        {
          "name": "",
          "type": "uint256"
        }
      ],
      "payable": false,
      "stateMutability": "view",
      "type": "function"
    },
    {
      "constant": true,
      "inputs": [],
      "name": "addtoid",
      "outputs": [
        {
          "name": "",
          "type": "uint256"
        }
      ],
      "payable": false,
      "stateMutability": "view",
      "type": "function"
    },
    {
      "constant": false,
      "inputs": [],
      "name": "donesetup",
      "outputs": [
        {
          "name": "",
          "type": "string"
        }
      ],
      "payable": false,
      "stateMutability": "nonpayable",
      "type": "function"
    },
    {
      "constant": false,
      "inputs": [],
      "name": "nextP",
      "outputs": [],
      "payable": false,
      "stateMutability": "nonpayable",
      "type": "function"
    },
    {
      "constant": false,
      "inputs": [
        {
          "name": "w",
          "type": "uint256"
        }
      ],
      "name": "setwin",
      "outputs": [],
      "payable": false,
      "stateMutability": "nonpayable",
      "type": "function"
    },
    {
      "constant": true,
      "inputs": [],
      "name": "getwin",
      "outputs": [
        {
          "name": "",
          "type": "uint256"
        }
      ],
      "payable": false,
      "stateMutability": "view",
      "type": "function"
    },
    {
      "constant": false,
      "inputs": [],
      "name": "endgame",
      "outputs": [],
      "payable": false,
      "stateMutability": "nonpayable",
      "type": "function"
    },
    {
      "constant": false,
      "inputs": [],
      "name": "initgame",
      "outputs": [],
      "payable": false,
      "stateMutability": "nonpayable",
      "type": "function"
    },
    {
      "constant": false,
      "inputs": [
        {
          "name": "p",
          "type": "uint256"
        }
      ],
      "name": "clrply",
      "outputs": [],
      "payable": false,
      "stateMutability": "nonpayable",
      "type": "function"
    },
    {
      "constant": true,
      "inputs": [
        {
          "name": "pdx",
          "type": "uint256"
        },
        {
          "name": "index",
          "type": "uint256"
        }
      ],
      "name": "checkSink",
      "outputs": [
        {
          "name": "",
          "type": "bool"
        }
      ],
      "payable": false,
      "stateMutability": "view",
      "type": "function"
    },
    {
      "constant": false,
      "inputs": [
        {
          "name": "pdx",
          "type": "uint256"
        },
        {
          "name": "index",
          "type": "uint256"
        }
      ],
      "name": "incrementHit",
      "outputs": [],
      "payable": false,
      "stateMutability": "nonpayable",
      "type": "function"
    },
    {
      "constant": false,
      "inputs": [
        {
          "name": "pdx",
          "type": "uint256"
        }
      ],
      "name": "incrementSink",
      "outputs": [],
      "payable": false,
      "stateMutability": "nonpayable",
      "type": "function"
    },
    {
      "constant": true,
      "inputs": [
        {
          "name": "pdx",
          "type": "uint256"
        }
      ],
      "name": "checkWin",
      "outputs": [
        {
          "name": "",
          "type": "bool"
        }
      ],
      "payable": false,
      "stateMutability": "view",
      "type": "function"
    },
    {
      "constant": false,
      "inputs": [
        {
          "name": "pdx",
          "type": "uint256"
        },
        {
          "name": "index",
          "type": "uint256"
        }
      ],
      "name": "applySink",
      "outputs": [],
      "payable": false,
      "stateMutability": "nonpayable",
      "type": "function"
    },
    {
      "constant": true,
      "inputs": [
        {
          "name": "pdx",
          "type": "uint256"
        }
      ],
      "name": "getSetUpComplete",
      "outputs": [
        {
          "name": "",
          "type": "uint256"
        }
      ],
      "payable": false,
      "stateMutability": "view",
      "type": "function"
    },
    {
      "constant": true,
      "inputs": [
        {
          "name": "pdx",
          "type": "uint256"
        }
      ],
      "name": "getSetUpRotate",
      "outputs": [
        {
          "name": "",
          "type": "uint256"
        }
      ],
      "payable": false,
      "stateMutability": "view",
      "type": "function"
    },
    {
      "constant": true,
      "inputs": [
        {
          "name": "pdx",
          "type": "uint256"
        }
      ],
      "name": "getSetUpStage",
      "outputs": [
        {
          "name": "",
          "type": "uint256"
        }
      ],
      "payable": false,
      "stateMutability": "view",
      "type": "function"
    },
    {
      "constant": false,
      "inputs": [
        {
          "name": "pdx",
          "type": "uint256"
        },
        {
          "name": "val",
          "type": "uint256"
        }
      ],
      "name": "setSetUpComplete",
      "outputs": [],
      "payable": false,
      "stateMutability": "nonpayable",
      "type": "function"
    },
    {
      "constant": false,
      "inputs": [
        {
          "name": "pdx",
          "type": "uint256"
        },
        {
          "name": "val",
          "type": "uint256"
        }
      ],
      "name": "setSetUpRotate",
      "outputs": [],
      "payable": false,
      "stateMutability": "nonpayable",
      "type": "function"
    },
    {
      "constant": false,
      "inputs": [
        {
          "name": "pdx",
          "type": "uint256"
        }
      ],
      "name": "incrementSetUpStage",
      "outputs": [],
      "payable": false,
      "stateMutability": "nonpayable",
      "type": "function"
    },
    {
      "constant": false,
      "inputs": [
        {
          "name": "pdx",
          "type": "uint256"
        },
        {
          "name": "x",
          "type": "uint256"
        },
        {
          "name": "y",
          "type": "uint256"
        },
        {
          "name": "val",
          "type": "uint256"
        }
      ],
      "name": "setMap",
      "outputs": [],
      "payable": false,
      "stateMutability": "nonpayable",
      "type": "function"
    },
    {
      "constant": true,
      "inputs": [
        {
          "name": "pdx",
          "type": "uint256"
        }
      ],
      "name": "getMap",
      "outputs": [
        {
          "name": "",
          "type": "uint256[10][]"
        }
      ],
      "payable": false,
      "stateMutability": "view",
      "type": "function"
    },
    {
      "constant": true,
      "inputs": [
        {
          "name": "pdx",
          "type": "uint256"
        },
        {
          "name": "x",
          "type": "uint256"
        },
        {
          "name": "y",
          "type": "uint256"
        }
      ],
      "name": "getMapAtPos",
      "outputs": [
        {
          "name": "",
          "type": "uint256"
        }
      ],
      "payable": false,
      "stateMutability": "view",
      "type": "function"
    },
    {
      "constant": false,
      "inputs": [
        {
          "name": "pdx",
          "type": "uint256"
        },
        {
          "name": "x",
          "type": "uint256"
        },
        {
          "name": "y",
          "type": "uint256"
        },
        {
          "name": "st",
          "type": "uint256"
        }
      ],
      "name": "setState",
      "outputs": [],
      "payable": false,
      "stateMutability": "nonpayable",
      "type": "function"
    },
    {
      "constant": true,
      "inputs": [
        {
          "name": "pdx",
          "type": "uint256"
        },
        {
          "name": "x",
          "type": "uint256"
        },
        {
          "name": "y",
          "type": "uint256"
        }
      ],
      "name": "getStateAtPos",
      "outputs": [
        {
          "name": "",
          "type": "uint256"
        }
      ],
      "payable": false,
      "stateMutability": "view",
      "type": "function"
    },
    {
      "constant": true,
      "inputs": [
        {
          "name": "pdx",
          "type": "uint256"
        }
      ],
      "name": "getState",
      "outputs": [
        {
          "name": "",
          "type": "uint256[10][]"
        }
      ],
      "payable": false,
      "stateMutability": "view",
      "type": "function"
    }
  ],
  "bytecode": "0x60806040526006604051908082528060200260200182016040528015620000355781602001602082028038833980820191505090505b50600090805190602001906200004d929190620004d8565b506000600f5560006010553480156200006557600080fd5b506000806000815481106200007657fe5b9060005260206000200181905550600560006001815481106200009557fe5b906000526020600020018190555060046000600281548110620000b457fe5b906000526020600020018190555060036000600381548110620000d357fe5b906000526020600020018190555060036000600481548110620000f257fe5b9060005260206000200181905550600260006005815481106200011157fe5b906000526020600020018190555060006002819055506000600f819055506000600c60006101000a81548160ff021916908360038111156200014f57fe5b021790555060026001819055506000600480018190555060006004600501819055506000600460060181905550600160046007018190555060008090505b600a81101562000255576004600201604051806101400160405280600060ff168152602001600060ff168152602001600060ff168152602001600060ff168152602001600060ff168152602001600060ff168152602001600060ff168152602001600060ff168152602001600060ff168152602001600060ff168152509080600181540180825580915050906001820390600052602060002090600a02016000909192909190915090600a620002459291906200052a565b505080806001019150506200018d565b5060008090505b600a81101562000324576004600101604051806101400160405280600060ff168152602001600060ff168152602001600060ff168152602001600060ff168152602001600060ff168152602001600060ff168152602001600060ff168152602001600060ff168152602001600060ff168152602001600060ff168152509080600181540180825580915050906001820390600052602060002090600a02016000909192909190915090600a620003149291906200052a565b505080806001019150506200025c565b5060008090505b6006811015620003735760046003016000908060018154018082558091505090600182039060005260206000200160009091929091909150555080806001019150506200032b565b506003600490806001815401808255809150509060018203906000526020600020906008020160009091929091909150600082015481600001556001820181600101908054620003c592919062000574565b506002820181600201908054620003de92919062000574565b506003820181600301908054620003f7929190620005e0565b506004820154816004015560058201548160050155600682015481600601556007820154816007015550505060036004908060018154018082558091505090600182039060005260206000209060080201600090919290919091506000820154816000015560018201816001019080546200047492919062000574565b5060028201816002019080546200048d92919062000574565b506003820181600301908054620004a6929190620005e0565b5060048201548160040155600582015481600501556006820154816006015560078201548160070155505050620006e7565b82805482825590600052602060002090810192821562000517579160200282015b8281111562000516578251825591602001919060010190620004f9565b5b50905062000526919062000637565b5090565b82600a810192821562000561579160200282015b8281111562000560578251829060ff169055916020019190600101906200053e565b5b50905062000570919062000637565b5090565b82805482825590600052602060002090600a028101928215620005cd57600052602060002091600a0282015b82811115620005cc57828290600a620005bb9291906200065f565b5091600a019190600a0190620005a0565b5b509050620005dc9190620006a1565b5090565b828054828255906000526020600020908101928215620006245760005260206000209182015b828111156200062357825482559160010191906001019062000606565b5b50905062000633919062000637565b5090565b6200065c91905b80821115620006585760008160009055506001016200063e565b5090565b90565b82600a81019282156200068e579182015b828111156200068d57825482559160010191906001019062000670565b5b5090506200069d919062000637565b5090565b620006cf91905b80821115620006cb5760008181620006c19190620006d2565b50600a01620006a8565b5090565b90565b5080600a0190620006e4919062000637565b50565b61177880620006f76000396000f3fe608060405234801561001057600080fd5b50600436106101e55760003560e01c8063a6355fe11161010f578063d2c69013116100a2578063ed05c79211610071578063ed05c79214610863578063f3aa9232146108af578063f76567ce146108e7578063faec8e001461093d576101e5565b8063d2c6901314610799578063d3760282146107a3578063d76f27e6146107d1578063e9ea48cb14610813576101e5565b8063c15f93b4116100de578063c15f93b41461070b578063c4ed65f314610729578063c5f874b114610761578063d09bcd781461078f576101e5565b8063a6355fe11461063b578063ab49ed2d14610669578063b0cbc56c146106bf578063bb8db7c3146106dd576101e5565b806344c9af281161018757806390d8474b1161015657806390d8474b1461055f5780639dd63d6b1461057d578063a35938cf14610587578063a4db6252146105f5576101e5565b806344c9af28146103f5578063509b8b5214610499578063668e3a6a146104e55780636c553abc1461051d576101e5565b8063201c3845116101c3578063201c38451461032f578063217381221461034d57806331288e241461037b5780633d665753146103bd576101e5565b8063025799f0146101ea57806306f3380b1461028e5780631605f4a0146102ac575b600080fd5b6102166004803603602081101561020057600080fd5b810190808035906020019092919050505061095b565b60405180806020018281038252838181518152602001915080516000925b8184101561027d5782846020026020010151600a60200280838360005b8381101561026c578082015181840152602081019050610251565b505050509050019260010192610234565b925050509250505060405180910390f35b610296610a09565b6040518082815260200191505060405180910390f35b6102b4610a7f565b6040518080602001828103825283818151815260200191508051906020019080838360005b838110156102f45780820151818401526020810190506102d9565b50505050905090810190601f1680156103215780820380516001836020036101000a031916815260200191505b509250505060405180910390f35b610337610b46565b6040518082815260200191505060405180910390f35b6103796004803603602081101561036357600080fd5b8101908080359060200190929190505050610b4c565b005b6103a76004803603602081101561039157600080fd5b8101908080359060200190929190505050610b7a565b6040518082815260200191505060405180910390f35b6103f3600480360360408110156103d357600080fd5b810190808035906020019092919080359060200190929190505050610ba2565b005b6104216004803603602081101561040b57600080fd5b8101908080359060200190929190505050610be8565b60405180806020018281038252838181518152602001915080516000925b818410156104885782846020026020010151600a60200280838360005b8381101561047757808201518184015260208101905061045c565b50505050905001926001019261043f565b925050509250505060405180910390f35b6104e3600480360360808110156104af57600080fd5b8101908080359060200190929190803590602001909291908035906020019092919080359060200190929190505050610c96565b005b61051b600480360360408110156104fb57600080fd5b810190808035906020019092919080359060200190929190505050610ce4565b005b6105496004803603602081101561053357600080fd5b8101908080359060200190929190505050610db2565b6040518082815260200191505060405180910390f35b610567610dda565b6040518082815260200191505060405180910390f35b610585610eba565b005b6105b36004803603602081101561059d57600080fd5b8101908080359060200190929190505050610ee0565b604051808273ffffffffffffffffffffffffffffffffffffffff1673ffffffffffffffffffffffffffffffffffffffff16815260200191505060405180910390f35b6106216004803603602081101561060b57600080fd5b8101908080359060200190929190505050610f13565b604051808215151515815260200191505060405180910390f35b6106676004803603602081101561065157600080fd5b8101908080359060200190929190505050610f3e565b005b6106a96004803603606081101561067f57600080fd5b81019080803590602001909291908035906020019092919080359060200190929190505050610f6e565b6040518082815260200191505060405180910390f35b6106c7610fbd565b6040518082815260200191505060405180910390f35b610709600480360360208110156106f357600080fd5b8101908080359060200190929190505050610fc7565b005b6107136111b6565b6040518082815260200191505060405180910390f35b61075f6004803603604081101561073f57600080fd5b8101908080359060200190929190803590602001909291905050506111c0565b005b61078d6004803603602081101561077757600080fd5b81019080803590602001909291905050506111e7565b005b61079761122e565b005b6107a1611475565b005b6107cf600480360360208110156107b957600080fd5b810190808035906020019092919050505061148d565b005b6107fd600480360360208110156107e757600080fd5b810190808035906020019092919050505061156e565b6040518082815260200191505060405180910390f35b6108496004803603604081101561082957600080fd5b810190808035906020019092919080359060200190929190505050611596565b604051808215151515815260200191505060405180910390f35b6108ad6004803603608081101561087957600080fd5b81019080803590602001909291908035906020019092919080359060200190929190803590602001909291905050506115ec565b005b6108e5600480360360408110156108c557600080fd5b81019080803590602001909291908035906020019092919050505061163a565b005b610927600480360360608110156108fd57600080fd5b81019080803590602001909291908035906020019092919080359060200190929190505050611661565b6040518082815260200191505060405180910390f35b6109456116b0565b6040518082815260200191505060405180910390f35b60606003828154811061096a57fe5b9060005260206000209060080201600101805480602002602001604051908101604052809291908181526020016000905b828210156109fe57838290600052602060002090600a0201600a806020026040519081016040528092919082600a80156109ea576020028201915b8154815260200190600101908083116109d6575b50505050508152602001906001019061099b565b505050509050919050565b60003373ffffffffffffffffffffffffffffffffffffffff16600d600060028110610a3057fe5b0160009054906101000a900473ffffffffffffffffffffffffffffffffffffffff1673ffffffffffffffffffffffffffffffffffffffff161415610a775760009050610a7c565b600190505b90565b6060806040518060400160405280601481526020017f6e65787420706c6179657220746f2073657475700000000000000000000000008152509050600160025401600281905550600280541415610b2d576002600c60006101000a81548160ff02191690836003811115610aef57fe5b02179055506040518060400160405280600f81526020017f67616d652073746172746564212121000000000000000000000000000000000081525090505b6002805481610b3857fe5b066002819055508091505090565b60015481565b806010819055506003600c60006101000a81548160ff02191690836003811115610b7257fe5b021790555050565b600060038281548110610b8957fe5b9060005260206000209060080201600701549050919050565b600160038381548110610bb157fe5b90600052602060002090600802016003018281548110610bcd57fe5b90600052602060002001600082825401925050819055505050565b606060038281548110610bf757fe5b9060005260206000209060080201600201805480602002602001604051908101604052809291908181526020016000905b82821015610c8b57838290600052602060002090600a0201600a806020026040519081016040528092919082600a8015610c77576020028201915b815481526020019060010190808311610c63575b505050505081526020019060010190610c28565b505050509050919050565b8060038581548110610ca457fe5b90600052602060002090600802016001018481548110610cc057fe5b90600052602060002090600a020183600a8110610cd957fe5b018190555050505050565b60008090505b600a811015610dad5760008090505b600a811015610da1578260038581548110610d1057fe5b90600052602060002090600802016001018381548110610d2c57fe5b90600052602060002090600a020182600a8110610d4557fe5b01541415610d96576003808581548110610d5b57fe5b90600052602060002090600802016002018381548110610d7757fe5b90600052602060002090600a020182600a8110610d9057fe5b01819055505b600181019050610cf9565b50600181019050610cea565b505050565b600060038281548110610dc157fe5b9060005260206000209060080201600601549050919050565b6000806003811115610de857fe5b600c60009054906101000a900460ff166003811115610e0357fe5b1415610e125760009050610eb7565b60016003811115610e1f57fe5b600c60009054906101000a900460ff166003811115610e3a57fe5b1415610e495760019050610eb7565b60026003811115610e5657fe5b600c60009054906101000a900460ff166003811115610e7157fe5b1415610e805760029050610eb7565b600380811115610e8c57fe5b600c60009054906101000a900460ff166003811115610ea757fe5b1415610eb65760039050610eb7565b5b90565b6000600c60006101000a81548160ff02191690836003811115610ed957fe5b0217905550565b600d8160028110610eed57fe5b016000915054906101000a900473ffffffffffffffffffffffffffffffffffffffff1681565b6000600560038381548110610f2457fe5b906000526020600020906008020160040154149050919050565b600160038281548110610f4d57fe5b90600052602060002090600802016004016000828254019250508190555050565b600060038481548110610f7d57fe5b90600052602060002090600802016002018381548110610f9957fe5b90600052602060002090600a020182600a8110610fb257fe5b015490509392505050565b6000600254905090565b600060038281548110610fd657fe5b906000526020600020906008020160040181905550600060038281548110610ffa57fe5b90600052602060002090600802016005018190555060006003828154811061101e57fe5b90600052602060002090600802016006018190555060016003828154811061104257fe5b90600052602060002090600802016007018190555060008090505b60068110156110ac5760006003838154811061107557fe5b9060005260206000209060080201600301828154811061109157fe5b9060005260206000200181905550808060010191505061105d565b5060008090505b600a81101561112f5760008090505b600a811015611121576000600384815481106110da57fe5b906000526020600020906008020160020183815481106110f657fe5b90600052602060002090600a020182600a811061110f57fe5b018190555080806001019150506110c2565b5080806001019150506110b3565b5060008090505b600a8110156111b25760008090505b600a8110156111a45760006003848154811061115d57fe5b9060005260206000209060080201600101838154811061117957fe5b90600052602060002090600a020182600a811061119257fe5b01819055508080600101915050611145565b508080600101915050611136565b5050565b6000601054905090565b80600383815481106111ce57fe5b9060005260206000209060080201600501819055505050565b6001600382815481106111f657fe5b906000526020600020906008020160070154016003828154811061121657fe5b90600052602060002090600802016007018190555050565b60006002819055506000600c60006101000a81548160ff0219169083600381111561125557fe5b021790555060026001819055506002600f8190555060008090505b60028110156114725760006003828154811061128857fe5b9060005260206000209060080201600401819055506000600382815481106112ac57fe5b9060005260206000209060080201600501819055506000600382815481106112d057fe5b9060005260206000209060080201600601819055506001600382815481106112f457fe5b90600052602060002090600802016007018190555060008090505b600681101561135e5760006003838154811061132757fe5b9060005260206000209060080201600301828154811061134357fe5b9060005260206000200181905550808060010191505061130f565b5060008090505b600a8110156113e15760008090505b600a8110156113d35760006003848154811061138c57fe5b906000526020600020906008020160020183815481106113a857fe5b90600052602060002090600a020182600a81106113c157fe5b01819055508080600101915050611374565b508080600101915050611365565b5060008090505b600a8110156114645760008090505b600a8110156114565760006003848154811061140f57fe5b9060005260206000209060080201600101838154811061142b57fe5b90600052602060002090600a020182600a811061144457fe5b018190555080806001019150506113f7565b5080806001019150506113e8565b508080600101915050611270565b50565b60026001600254018161148457fe5b06600281905550565b60008114156114c557600060038111156114a357fe5b600c60009054906101000a900460ff1660038111156114be57fe5b505061156b565b60018114156114fd57600160038111156114db57fe5b600c60009054906101000a900460ff1660038111156114f657fe5b505061156a565b6002811415611535576002600381111561151357fe5b600c60009054906101000a900460ff16600381111561152e57fe5b5050611569565b60038114156115685760038081111561154a57fe5b600c60009054906101000a900460ff16600381111561156557fe5b50505b5b5b5b50565b60006003828154811061157d57fe5b9060005260206000209060080201600501549050919050565b60008082815481106115a457fe5b9060005260206000200154600384815481106115bc57fe5b906000526020600020906008020160030183815481106115d857fe5b906000526020600020015414905092915050565b80600385815481106115fa57fe5b9060005260206000209060080201600201848154811061161657fe5b90600052602060002090600a020183600a811061162f57fe5b018190555050505050565b806003838154811061164857fe5b9060005260206000209060080201600601819055505050565b60006003848154811061167057fe5b9060005260206000209060080201600101838154811061168c57fe5b90600052602060002090600a020182600a81106116a557fe5b015490509392505050565b600033600d600254600281106116c257fe5b0160006101000a81548173ffffffffffffffffffffffffffffffffffffffff021916908373ffffffffffffffffffffffffffffffffffffffff160217905550600160025401600281905550600280541415611744576001600c60006101000a81548160ff0219169083600381111561173657fe5b021790555060006002819055505b60025490509056fea165627a7a72305820645e8f28d471b1a5452fce68209d7bd7c3e51c56c567ddfe36817b1ba58e84dd0029",
  "source": "pragma solidity ^0.5.0;\n\ncontract Battleship {\n\n    // defining player structure\n    struct Player {\n      uint _id;\n      uint[10][] map;\n      uint[10][] state;\n      uint[] hitCount;\n      uint sinkCount;\n      uint setUpComplete;\n      uint setUpRotate;\n      uint setUpStage;\n    }\n\n    uint[] shiplen = new uint[](6);\n    enum State { Initial, InitBoard, Game, Done }\n\n    // player[0] : player0 and [1] : player 2\n\n    uint public numOfPlayers;\n    uint currentPlayer;\n    Player[] players;\n    Player plyn;\n    State state;\n    address[2] public plyradd;\n\n    constructor() public{\n       shiplen[0] = 0;\n       shiplen[1] = 5;\n       shiplen[2] = 4;\n       shiplen[3] = 3;\n       shiplen[4] = 3;\n       shiplen[5] = 2;\n       currentPlayer = 0;\n       counter = 0;\n       state = State.Initial;\n       numOfPlayers = 2;\n       plyn.sinkCount = 0;\n        plyn.setUpComplete = 0;\n        plyn.setUpRotate = 0;\n        plyn.setUpStage = 1;\n      for(uint256 i = 0; i<10; i++){\n      // plyn.map.push([0,0,0,0,0,0,0,0,0,0]);\n       plyn.state.push([0,0,0,0,0,0,0,0,0,0]);\n      }\n      for(uint256 i = 0; i<10; i++){\n       plyn.map.push([0,0,0,0,0,0,0,0,0,0]);\n      }\n      for(uint256 i = 0; i<6;i++){\n               plyn.hitCount.push(0);\n           }\n      players.push(plyn);\n      players.push(plyn);\n\n    }\n\n\n    function gamestate() public view returns(uint){\n      if(state == State.Initial){\n        return 0;\n      }\n      if(state == State.InitBoard){\n        return 1;\n      }\n      if(state == State.Game){\n        return 2;\n      }\n      if(state == State.Done){\n        return 3;\n      }\n    }\n\n    function setgamestate(uint ind) public view{\n      if(ind == 0){\n        state == State.Initial;\n      }\n      else if(ind == 1){\n        state == State.InitBoard;\n      }\n      else if(ind == 2){\n        state == State.Game;\n      }\n      else if(ind == 3){\n        state == State.Done;\n      }\n    }\n\n    function iniadd() public returns(uint){\n        plyradd[currentPlayer] = msg.sender;\n        currentPlayer = currentPlayer + 1;\n        if(currentPlayer == 2){\n          state = State.InitBoard;\n          currentPlayer = 0;\n        }\n        return currentPlayer;\n    }\n\n    function currply() public view returns(uint){\n      return currentPlayer;\n    }\n\n    function addtoid() public view returns(uint){\n      if(plyradd[0]==msg.sender){\n        return 0;\n      }\n      else{\n        return 1;\n      }\n    }\n\n    function addinternal(address) internal view returns(uint){\n      if(plyradd[0]==msg.sender){\n        return 0;\n      }\n      else{\n        return 1;\n      }\n    }\n    uint counter = 0;\n\n    function donesetup() public returns(string memory){  \n        string memory mssg = \"next player to setup\";\n        currentPlayer = currentPlayer + 1;      \n        if(currentPlayer == 2){\n          state = State.Game;\n          mssg = \"game started!!!\";\n        }\n        currentPlayer = currentPlayer%2;\n        return mssg;\n    }\n\n    function nextP() public{\n        currentPlayer = (currentPlayer + 1)%2;\n    }\n\n    uint winn = 0;\n    function setwin(uint w) public{\n      winn = w;\n      state = State.Done;\n    }\n    function getwin() public view returns(uint){\n    return winn;\n    }\n    function endgame() public {\n      state = State.Initial;\n    }\n\n\n   function initgame() public{\n       currentPlayer = 0;\n       state = State.Initial;\n       numOfPlayers = 2;\n       counter = 2;\n       for(uint256 p = 0; p < 2; p++) {\n           players[p].sinkCount = 0;\n           players[p].setUpComplete = 0;\n           players[p].setUpRotate = 0;\n           players[p].setUpStage = 1;\n           for(uint256 i = 0; i<6;i++){\n               players[p].hitCount[i] = 0;\n           }\n           for(uint256 i = 0; i<10; i++){\n             for(uint256 j = 0; j<10;j++)\n             players[p].state[i][j] = 0;\n               // players[p].map[i][j] = 0;\n           }\n           for(uint256 i = 0; i<10; i++){\n             for(uint256 j = 0; j<10;j++)\n             //players[p].state[i][j] = 0;\n                players[p].map[i][j] = 0;\n           }\n       }\n    }\n\n     function clrply(uint p) public{\n           players[p].sinkCount = 0;\n           players[p].setUpComplete = 0;\n           players[p].setUpRotate = 0;\n           players[p].setUpStage = 1;\n           for(uint256 i = 0; i<6;i++){\n               players[p].hitCount[i] = 0;\n           }\n           for(uint256 i = 0; i<10; i++){\n             for(uint256 j = 0; j<10;j++)\n             players[p].state[i][j] = 0;\n               // players[p].map[i][j] = 0;\n           }\n           for(uint256 i = 0; i<10; i++){\n             for(uint256 j = 0; j<10;j++)\n             //players[p].state[i][j] = 0;\n                players[p].map[i][j] = 0;\n           }\n       }\n\n   function checkSink(uint pdx, uint index) public view returns(bool){\n         return players[pdx].hitCount[index] == shiplen[index];\n     }\n  /**\n   * incrementHit(index)\n   * increment the hit count for the ship that got hit\n   * type of ship that got hit\n   */\n\n  function incrementHit(uint pdx, uint index) public {\n    players[pdx].hitCount[index] += 1;\n  }\n\n  /**\n   * incrementSink()\n   * increment the sink count\n  */\n  function incrementSink(uint pdx) public {\n    players[pdx].sinkCount += 1;\n  }\n\n  /**\n   * checkWin()\n   * returns true if sinkCount is 5, congratulations!\n  */\n  function checkWin(uint pdx) public view returns(bool) {\n\n    return players[pdx].sinkCount == 5;\n  }\n\n  /**\n   * applySink(index)\n   * iterate through state and change the value to SUNK\n   */\n  function applySink(uint pdx, uint index) public {\n    for (uint256 i = 0; i < 10; i += 1) {\n      for (uint256 j = 0; j < 10; j += 1) {\n        if (players[pdx].map[i][j] == index) {\n          players[pdx].state[i][j] = 3;\n        }\n      }\n    }\n  }\n\n  function getSetUpComplete(uint pdx) public view returns(uint) {\n    return players[pdx].setUpComplete;\n  }\n\n  function getSetUpRotate(uint pdx) public view returns(uint){\n    return players[pdx].setUpRotate;\n  }\n\n  function getSetUpStage(uint pdx) public view returns(uint){\n    return players[pdx].setUpStage;\n  }\n   //return p;\n\n  function setSetUpComplete(uint pdx, uint val) public{\n    players[pdx].setUpComplete = val;\n  }\n\n  function setSetUpRotate(uint pdx, uint val) public {\n    players[pdx].setUpRotate = val;\n  }\n\n  function incrementSetUpStage(uint pdx) public{\n    players[pdx].setUpStage = players[pdx].setUpStage + 1;\n  }\n\n  function setMap(uint pdx, uint  x, uint  y,uint  val) public{\n    players[pdx].map[x][y] = val;\n  }\n\n  function getMap(uint pdx) public view returns(uint[10][] memory){\n    return players[pdx].map;\n  }\n\n  function getMapAtPos(uint pdx, uint x,uint y) public view returns(uint) {\n    return players[pdx].map[x][y];\n  }\n\n  function setState(uint pdx, uint x,uint y, uint st) public {\n    players[pdx].state[x][y] = st;\n  }\n\n  function getStateAtPos(uint pdx, uint x,uint y) public view returns(uint){\n    return players[pdx].state[x][y];\n  }\n\n  function getState(uint pdx) public view returns(uint[10][] memory){\n    return players[pdx].state;\n  }\n}\n\n",
  "sourcePath": "/Users/mymac/Desktop/node_projects/Battleship-game/Battleship-with-multiplayer/Battleship-solidity/contracts/Battleship.sol",
  "compiler": {
    "name": "solc",
    "version": "0.5.8+commit.23d335f2.Emscripten.clang"
  },
  "schemaVersion": "3.0.16",
  "updatedAt": "2019-11-30T18:12:08.280Z",
  "devdoc": {
    "methods": {}
  },
  "userdoc": {
    "methods": {
      "applySink(uint256,uint256)": {
        "notice": "applySink(index) iterate through state and change the value to SUNK"
      },
      "checkWin(uint256)": {
        "notice": "checkWin() returns true if sinkCount is 5, congratulations!"
      },
      "incrementHit(uint256,uint256)": {
        "notice": "incrementHit(index) increment the hit count for the ship that got hit type of ship that got hit"
      },
      "incrementSink(uint256)": {
        "notice": "incrementSink() increment the sink count"
      }
    }
  }
}