{
  "contractName": "Battleship",
  "abi": [
    {
      "constant": true,
      "inputs": [],
      "name": "numOfPlayers",
      "outputs": [
        {
          "name": "",
          "type": "uint256"
        }
      ],
      "payable": false,
      "stateMutability": "view",
      "type": "function"
    },
    {
      "inputs": [],
      "payable": false,
      "stateMutability": "nonpayable",
      "type": "constructor"
    },
    {
      "constant": false,
      "inputs": [],
      "name": "initgame",
      "outputs": [],
      "payable": false,
      "stateMutability": "nonpayable",
      "type": "function"
    },
    {
      "constant": false,
      "inputs": [
        {
          "name": "p",
          "type": "uint256"
        }
      ],
      "name": "clrply",
      "outputs": [],
      "payable": false,
      "stateMutability": "nonpayable",
      "type": "function"
    },
    {
      "constant": true,
      "inputs": [
        {
          "name": "pdx",
          "type": "uint256"
        },
        {
          "name": "index",
          "type": "uint256"
        }
      ],
      "name": "checkSink",
      "outputs": [
        {
          "name": "",
          "type": "bool"
        }
      ],
      "payable": false,
      "stateMutability": "view",
      "type": "function"
    },
    {
      "constant": false,
      "inputs": [
        {
          "name": "pdx",
          "type": "uint256"
        },
        {
          "name": "index",
          "type": "uint256"
        }
      ],
      "name": "incrementHit",
      "outputs": [],
      "payable": false,
      "stateMutability": "nonpayable",
      "type": "function"
    },
    {
      "constant": false,
      "inputs": [
        {
          "name": "pdx",
          "type": "uint256"
        }
      ],
      "name": "incrementSink",
      "outputs": [],
      "payable": false,
      "stateMutability": "nonpayable",
      "type": "function"
    },
    {
      "constant": true,
      "inputs": [
        {
          "name": "pdx",
          "type": "uint256"
        }
      ],
      "name": "checkWin",
      "outputs": [
        {
          "name": "",
          "type": "bool"
        }
      ],
      "payable": false,
      "stateMutability": "view",
      "type": "function"
    },
    {
      "constant": false,
      "inputs": [
        {
          "name": "pdx",
          "type": "uint256"
        },
        {
          "name": "index",
          "type": "uint256"
        }
      ],
      "name": "applySink",
      "outputs": [],
      "payable": false,
      "stateMutability": "nonpayable",
      "type": "function"
    },
    {
      "constant": true,
      "inputs": [
        {
          "name": "pdx",
          "type": "uint256"
        }
      ],
      "name": "getSetUpComplete",
      "outputs": [
        {
          "name": "",
          "type": "uint256"
        }
      ],
      "payable": false,
      "stateMutability": "view",
      "type": "function"
    },
    {
      "constant": true,
      "inputs": [
        {
          "name": "pdx",
          "type": "uint256"
        }
      ],
      "name": "getSetUpRotate",
      "outputs": [
        {
          "name": "",
          "type": "uint256"
        }
      ],
      "payable": false,
      "stateMutability": "view",
      "type": "function"
    },
    {
      "constant": true,
      "inputs": [
        {
          "name": "pdx",
          "type": "uint256"
        }
      ],
      "name": "getSetUpStage",
      "outputs": [
        {
          "name": "",
          "type": "uint256"
        }
      ],
      "payable": false,
      "stateMutability": "view",
      "type": "function"
    },
    {
      "constant": false,
      "inputs": [
        {
          "name": "pdx",
          "type": "uint256"
        },
        {
          "name": "val",
          "type": "uint256"
        }
      ],
      "name": "setSetUpComplete",
      "outputs": [],
      "payable": false,
      "stateMutability": "nonpayable",
      "type": "function"
    },
    {
      "constant": false,
      "inputs": [
        {
          "name": "pdx",
          "type": "uint256"
        },
        {
          "name": "val",
          "type": "uint256"
        }
      ],
      "name": "setSetUpRotate",
      "outputs": [],
      "payable": false,
      "stateMutability": "nonpayable",
      "type": "function"
    },
    {
      "constant": false,
      "inputs": [
        {
          "name": "pdx",
          "type": "uint256"
        }
      ],
      "name": "incrementSetUpStage",
      "outputs": [],
      "payable": false,
      "stateMutability": "nonpayable",
      "type": "function"
    },
    {
      "constant": false,
      "inputs": [
        {
          "name": "pdx",
          "type": "uint256"
        },
        {
          "name": "x",
          "type": "uint256"
        },
        {
          "name": "y",
          "type": "uint256"
        },
        {
          "name": "val",
          "type": "uint256"
        }
      ],
      "name": "setMap",
      "outputs": [],
      "payable": false,
      "stateMutability": "nonpayable",
      "type": "function"
    },
    {
      "constant": true,
      "inputs": [
        {
          "name": "pdx",
          "type": "uint256"
        }
      ],
      "name": "getMap",
      "outputs": [
        {
          "name": "",
          "type": "uint256[10][]"
        }
      ],
      "payable": false,
      "stateMutability": "view",
      "type": "function"
    },
    {
      "constant": true,
      "inputs": [
        {
          "name": "pdx",
          "type": "uint256"
        },
        {
          "name": "x",
          "type": "uint256"
        },
        {
          "name": "y",
          "type": "uint256"
        }
      ],
      "name": "getMapAtPos",
      "outputs": [
        {
          "name": "",
          "type": "uint256"
        }
      ],
      "payable": false,
      "stateMutability": "view",
      "type": "function"
    },
    {
      "constant": false,
      "inputs": [
        {
          "name": "pdx",
          "type": "uint256"
        },
        {
          "name": "x",
          "type": "uint256"
        },
        {
          "name": "y",
          "type": "uint256"
        },
        {
          "name": "st",
          "type": "uint256"
        }
      ],
      "name": "setState",
      "outputs": [],
      "payable": false,
      "stateMutability": "nonpayable",
      "type": "function"
    },
    {
      "constant": true,
      "inputs": [
        {
          "name": "pdx",
          "type": "uint256"
        },
        {
          "name": "x",
          "type": "uint256"
        },
        {
          "name": "y",
          "type": "uint256"
        }
      ],
      "name": "getStateAtPos",
      "outputs": [
        {
          "name": "",
          "type": "uint256"
        }
      ],
      "payable": false,
      "stateMutability": "view",
      "type": "function"
    },
    {
      "constant": true,
      "inputs": [
        {
          "name": "pdx",
          "type": "uint256"
        }
      ],
      "name": "getState",
      "outputs": [
        {
          "name": "",
          "type": "uint256[10][]"
        }
      ],
      "payable": false,
      "stateMutability": "view",
      "type": "function"
    }
  ],
  "bytecode": "0x60806040526006604051908082528060200260200182016040528015620000355781602001602082028038833980820191505090505b50600090805190602001906200004d929190620004c6565b503480156200005b57600080fd5b506000806000815481106200006c57fe5b9060005260206000200181905550600560006001815481106200008b57fe5b906000526020600020018190555060046000600281548110620000aa57fe5b906000526020600020018190555060036000600381548110620000c957fe5b906000526020600020018190555060036000600481548110620000e857fe5b9060005260206000200181905550600260006005815481106200010757fe5b906000526020600020018190555060006002819055506000600c60006101000a81548160ff021916908360038111156200013d57fe5b021790555060026001819055506000600480018190555060006004600501819055506000600460060181905550600160046007018190555060008090505b600a81101562000243576004600201604051806101400160405280600060ff168152602001600060ff168152602001600060ff168152602001600060ff168152602001600060ff168152602001600060ff168152602001600060ff168152602001600060ff168152602001600060ff168152602001600060ff168152509080600181540180825580915050906001820390600052602060002090600a02016000909192909190915090600a6200023392919062000518565b505080806001019150506200017b565b5060008090505b600a81101562000312576004600101604051806101400160405280600060ff168152602001600060ff168152602001600060ff168152602001600060ff168152602001600060ff168152602001600060ff168152602001600060ff168152602001600060ff168152602001600060ff168152602001600060ff168152509080600181540180825580915050906001820390600052602060002090600a02016000909192909190915090600a6200030292919062000518565b505080806001019150506200024a565b5060008090505b60068110156200036157600460030160009080600181540180825580915050906001820390600052602060002001600090919290919091505550808060010191505062000319565b506003600490806001815401808255809150509060018203906000526020600020906008020160009091929091909150600082015481600001556001820181600101908054620003b392919062000562565b506002820181600201908054620003cc92919062000562565b506003820181600301908054620003e5929190620005ce565b506004820154816004015560058201548160050155600682015481600601556007820154816007015550505060036004908060018154018082558091505090600182039060005260206000209060080201600090919290919091506000820154816000015560018201816001019080546200046292919062000562565b5060028201816002019080546200047b92919062000562565b50600382018160030190805462000494929190620005ce565b5060048201548160040155600582015481600501556006820154816006015560078201548160070155505050620006d5565b82805482825590600052602060002090810192821562000505579160200282015b8281111562000504578251825591602001919060010190620004e7565b5b50905062000514919062000625565b5090565b82600a81019282156200054f579160200282015b828111156200054e578251829060ff169055916020019190600101906200052c565b5b5090506200055e919062000625565b5090565b82805482825590600052602060002090600a028101928215620005bb57600052602060002091600a0282015b82811115620005ba57828290600a620005a99291906200064d565b5091600a019190600a01906200058e565b5b509050620005ca91906200068f565b5090565b828054828255906000526020600020908101928215620006125760005260206000209182015b8281111562000611578254825591600101919060010190620005f4565b5b50905062000621919062000625565b5090565b6200064a91905b80821115620006465760008160009055506001016200062c565b5090565b90565b82600a81019282156200067c579182015b828111156200067b5782548255916001019190600101906200065e565b5b5090506200068b919062000625565b5090565b620006bd91905b80821115620006b95760008181620006af9190620006c0565b50600a0162000696565b5090565b90565b5080600a0190620006d2919062000625565b50565b61107b80620006e56000396000f3fe608060405234801561001057600080fd5b506004361061012c5760003560e01c8063ab49ed2d116100ad578063d76f27e611610071578063d76f27e61461053f578063e9ea48cb14610581578063ed05c792146105d1578063f3aa92321461061d578063f76567ce146106555761012c565b8063ab49ed2d1461044b578063bb8db7c3146104a1578063c4ed65f3146104cf578063c5f874b114610507578063d09bcd78146105355761012c565b8063509b8b52116100f4578063509b8b5214610311578063668e3a6a1461035d5780636c553abc14610395578063a4db6252146103d7578063a6355fe11461041d5761012c565b8063025799f014610131578063201c3845146101d557806331288e24146101f35780633d6657531461023557806344c9af281461026d575b600080fd5b61015d6004803603602081101561014757600080fd5b81019080803590602001909291905050506106ab565b60405180806020018281038252838181518152602001915080516000925b818410156101c45782846020026020010151600a60200280838360005b838110156101b3578082015181840152602081019050610198565b50505050905001926001019261017b565b925050509250505060405180910390f35b6101dd610759565b6040518082815260200191505060405180910390f35b61021f6004803603602081101561020957600080fd5b810190808035906020019092919050505061075f565b6040518082815260200191505060405180910390f35b61026b6004803603604081101561024b57600080fd5b81019080803590602001909291908035906020019092919050505061078f565b005b6102996004803603602081101561028357600080fd5b81019080803590602001909291905050506107d5565b60405180806020018281038252838181518152602001915080516000925b818410156103005782846020026020010151600a60200280838360005b838110156102ef5780820151818401526020810190506102d4565b5050505090500192600101926102b7565b925050509250505060405180910390f35b61035b6004803603608081101561032757600080fd5b8101908080359060200190929190803590602001909291908035906020019092919080359060200190929190505050610883565b005b6103936004803603604081101561037357600080fd5b8101908080359060200190929190803590602001909291905050506108d1565b005b6103c1600480360360208110156103ab57600080fd5b810190808035906020019092919050505061099f565b6040518082815260200191505060405180910390f35b610403600480360360208110156103ed57600080fd5b81019080803590602001909291905050506109c7565b604051808215151515815260200191505060405180910390f35b6104496004803603602081101561043357600080fd5b81019080803590602001909291905050506109f2565b005b61048b6004803603606081101561046157600080fd5b81019080803590602001909291908035906020019092919080359060200190929190505050610a22565b6040518082815260200191505060405180910390f35b6104cd600480360360208110156104b757600080fd5b8101908080359060200190929190505050610a71565b005b610505600480360360408110156104e557600080fd5b810190808035906020019092919080359060200190929190505050610c60565b005b6105336004803603602081101561051d57600080fd5b8101908080359060200190929190505050610c87565b005b61053d610cce565b005b61056b6004803603602081101561055557600080fd5b8101908080359060200190929190505050610f0d565b6040518082815260200191505060405180910390f35b6105b76004803603604081101561059757600080fd5b810190808035906020019092919080359060200190929190505050610f35565b604051808215151515815260200191505060405180910390f35b61061b600480360360808110156105e757600080fd5b8101908080359060200190929190803590602001909291908035906020019092919080359060200190929190505050610f8b565b005b6106536004803603604081101561063357600080fd5b810190808035906020019092919080359060200190929190505050610fd9565b005b6106956004803603606081101561066b57600080fd5b81019080803590602001909291908035906020019092919080359060200190929190505050611000565b6040518082815260200191505060405180910390f35b6060600382815481106106ba57fe5b9060005260206000209060080201600101805480602002602001604051908101604052809291908181526020016000905b8282101561074e57838290600052602060002090600a0201600a806020026040519081016040528092919082600a801561073a576020028201915b815481526020019060010190808311610726575b5050505050815260200190600101906106eb565b505050509050919050565b60015481565b600080600a6003848154811061077157fe5b90600052602060002090600802016007015402905080915050919050565b60016003838154811061079e57fe5b906000526020600020906008020160030182815481106107ba57fe5b90600052602060002001600082825401925050819055505050565b6060600382815481106107e457fe5b9060005260206000209060080201600201805480602002602001604051908101604052809291908181526020016000905b8282101561087857838290600052602060002090600a0201600a806020026040519081016040528092919082600a8015610864576020028201915b815481526020019060010190808311610850575b505050505081526020019060010190610815565b505050509050919050565b806003858154811061089157fe5b906000526020600020906008020160010184815481106108ad57fe5b90600052602060002090600a020183600a81106108c657fe5b018190555050505050565b60008090505b600a81101561099a5760008090505b600a81101561098e5782600385815481106108fd57fe5b9060005260206000209060080201600101838154811061091957fe5b90600052602060002090600a020182600a811061093257fe5b0154141561098357600380858154811061094857fe5b9060005260206000209060080201600201838154811061096457fe5b90600052602060002090600a020182600a811061097d57fe5b01819055505b6001810190506108e6565b506001810190506108d7565b505050565b6000600382815481106109ae57fe5b9060005260206000209060080201600601549050919050565b60006005600383815481106109d857fe5b906000526020600020906008020160040154149050919050565b600160038281548110610a0157fe5b90600052602060002090600802016004016000828254019250508190555050565b600060038481548110610a3157fe5b90600052602060002090600802016002018381548110610a4d57fe5b90600052602060002090600a020182600a8110610a6657fe5b015490509392505050565b600060038281548110610a8057fe5b906000526020600020906008020160040181905550600060038281548110610aa457fe5b906000526020600020906008020160050181905550600060038281548110610ac857fe5b906000526020600020906008020160060181905550600160038281548110610aec57fe5b90600052602060002090600802016007018190555060008090505b6006811015610b5657600060038381548110610b1f57fe5b90600052602060002090600802016003018281548110610b3b57fe5b90600052602060002001819055508080600101915050610b07565b5060008090505b600a811015610bd95760008090505b600a811015610bcb57600060038481548110610b8457fe5b90600052602060002090600802016002018381548110610ba057fe5b90600052602060002090600a020182600a8110610bb957fe5b01819055508080600101915050610b6c565b508080600101915050610b5d565b5060008090505b600a811015610c5c5760008090505b600a811015610c4e57600060038481548110610c0757fe5b90600052602060002090600802016001018381548110610c2357fe5b90600052602060002090600a020182600a8110610c3c57fe5b01819055508080600101915050610bef565b508080600101915050610be0565b5050565b8060038381548110610c6e57fe5b9060005260206000209060080201600501819055505050565b600160038281548110610c9657fe5b9060005260206000209060080201600701540160038281548110610cb657fe5b90600052602060002090600802016007018190555050565b60006002819055506000600c60006101000a81548160ff02191690836003811115610cf557fe5b0217905550600260018190555060008090505b6002811015610f0a57600060038281548110610d2057fe5b906000526020600020906008020160040181905550600060038281548110610d4457fe5b906000526020600020906008020160050181905550600060038281548110610d6857fe5b906000526020600020906008020160060181905550600160038281548110610d8c57fe5b90600052602060002090600802016007018190555060008090505b6006811015610df657600060038381548110610dbf57fe5b90600052602060002090600802016003018281548110610ddb57fe5b90600052602060002001819055508080600101915050610da7565b5060008090505b600a811015610e795760008090505b600a811015610e6b57600060038481548110610e2457fe5b90600052602060002090600802016002018381548110610e4057fe5b90600052602060002090600a020182600a8110610e5957fe5b01819055508080600101915050610e0c565b508080600101915050610dfd565b5060008090505b600a811015610efc5760008090505b600a811015610eee57600060038481548110610ea757fe5b90600052602060002090600802016001018381548110610ec357fe5b90600052602060002090600a020182600a8110610edc57fe5b01819055508080600101915050610e8f565b508080600101915050610e80565b508080600101915050610d08565b50565b600060038281548110610f1c57fe5b9060005260206000209060080201600501549050919050565b6000808281548110610f4357fe5b906000526020600020015460038481548110610f5b57fe5b90600052602060002090600802016003018381548110610f7757fe5b906000526020600020015414905092915050565b8060038581548110610f9957fe5b90600052602060002090600802016002018481548110610fb557fe5b90600052602060002090600a020183600a8110610fce57fe5b018190555050505050565b8060038381548110610fe757fe5b9060005260206000209060080201600601819055505050565b60006003848154811061100f57fe5b9060005260206000209060080201600101838154811061102b57fe5b90600052602060002090600a020182600a811061104457fe5b01549050939250505056fea165627a7a72305820a0a42fc6f8e67dff9ce8dddf8ab8a1cfdc601f154afb73c011245748b39568410029",
  "source": "pragma solidity ^0.5.0;\n\ncontract Battleship {\n\n    // defining player structure\n    struct Player {\n      uint _id;\n      uint[10][] map;\n      uint[10][] state;\n      uint[] hitCount;\n      uint sinkCount;\n      uint setUpComplete;\n      uint setUpRotate;\n      uint setUpStage;\n    }\n\n    uint[] shiplen = new uint[](6);\n    enum State { Initial, InitBoard, Game, Done }\n\n    // player[0] : player0 and [1] : player 2\n\n    uint public numOfPlayers;\n    uint currentPlayer;\n    Player[] players;\n    Player plyn;\n    State state;\n\n    constructor() public{\n       shiplen[0] = 0;\n       shiplen[1] = 5;\n       shiplen[2] = 4;\n       shiplen[3] = 3;\n       shiplen[4] = 3;\n       shiplen[5] = 2;\n       currentPlayer = 0;\n       state = State.Initial;\n       numOfPlayers = 2;\n       plyn.sinkCount = 0;\n        plyn.setUpComplete = 0;\n        plyn.setUpRotate = 0;\n        plyn.setUpStage = 1;\n      for(uint256 i = 0; i<10; i++){\n      // plyn.map.push([0,0,0,0,0,0,0,0,0,0]);\n       plyn.state.push([0,0,0,0,0,0,0,0,0,0]);\n      }\n      for(uint256 i = 0; i<10; i++){\n       plyn.map.push([0,0,0,0,0,0,0,0,0,0]);\n      }\n      for(uint256 i = 0; i<6;i++){\n               plyn.hitCount.push(0);\n           }\n      players.push(plyn);\n      players.push(plyn);\n\n    }\n\n    function nextP() internal{\n        currentPlayer = (currentPlayer + 1)%2;\n    }\n\n   function initgame() public{\n       currentPlayer = 0;\n       state = State.Initial;\n       numOfPlayers = 2;\n       for(uint256 p = 0; p < 2; p++) {\n           players[p].sinkCount = 0;\n           players[p].setUpComplete = 0;\n           players[p].setUpRotate = 0;\n           players[p].setUpStage = 1;\n           for(uint256 i = 0; i<6;i++){\n               players[p].hitCount[i] = 0;\n           }\n           for(uint256 i = 0; i<10; i++){\n             for(uint256 j = 0; j<10;j++)\n             players[p].state[i][j] = 0;\n               // players[p].map[i][j] = 0;\n           }\n           for(uint256 i = 0; i<10; i++){\n             for(uint256 j = 0; j<10;j++)\n             //players[p].state[i][j] = 0;\n                players[p].map[i][j] = 0;\n           }\n       }\n    }\n\n     function clrply(uint p) public{\n           players[p].sinkCount = 0;\n           players[p].setUpComplete = 0;\n           players[p].setUpRotate = 0;\n           players[p].setUpStage = 1;\n           for(uint256 i = 0; i<6;i++){\n               players[p].hitCount[i] = 0;\n           }\n           for(uint256 i = 0; i<10; i++){\n             for(uint256 j = 0; j<10;j++)\n             players[p].state[i][j] = 0;\n               // players[p].map[i][j] = 0;\n           }\n           for(uint256 i = 0; i<10; i++){\n             for(uint256 j = 0; j<10;j++)\n             //players[p].state[i][j] = 0;\n                players[p].map[i][j] = 0;\n           }\n       }\n\n   function checkSink(uint pdx, uint index) public view returns(bool){\n         return players[pdx].hitCount[index] == shiplen[index];\n     }\n  /**\n   * incrementHit(index)\n   * increment the hit count for the ship that got hit\n   * type of ship that got hit\n   */\n\n  function incrementHit(uint pdx, uint index) public {\n    players[pdx].hitCount[index] += 1;\n  }\n\n  /**\n   * incrementSink()\n   * increment the sink count\n  */\n  function incrementSink(uint pdx) public {\n    players[pdx].sinkCount += 1;\n  }\n\n  /**\n   * checkWin()\n   * returns true if sinkCount is 5, congratulations!\n  */\n  function checkWin(uint pdx) public view returns(bool) {\n\n    return players[pdx].sinkCount == 5;\n  }\n\n  /**\n   * applySink(index)\n   * iterate through state and change the value to SUNK\n   */\n  function applySink(uint pdx, uint index) public {\n    for (uint256 i = 0; i < 10; i += 1) {\n      for (uint256 j = 0; j < 10; j += 1) {\n        if (players[pdx].map[i][j] == index) {\n          players[pdx].state[i][j] = 3;\n        }\n      }\n    }\n  }\n\n  function getSetUpComplete(uint pdx) public view returns(uint) {\n    return players[pdx].setUpComplete;\n  }\n\n  function getSetUpRotate(uint pdx) public view returns(uint){\n    return players[pdx].setUpRotate;\n  }\n\n  function getSetUpStage(uint pdx) public view returns(uint){\n    uint z = players[pdx].setUpStage*10;\n    return z;\n  }\n   //return p;\n\n  function setSetUpComplete(uint pdx, uint val) public{\n    players[pdx].setUpComplete = val;\n  }\n\n  function setSetUpRotate(uint pdx, uint val) public {\n    players[pdx].setUpRotate = val;\n  }\n\n  function incrementSetUpStage(uint pdx) public{\n    players[pdx].setUpStage = players[pdx].setUpStage + 1;\n  }\n\n  function setMap(uint pdx, uint  x, uint  y,uint  val) public{\n    players[pdx].map[x][y] = val;\n  }\n\n  function getMap(uint pdx) public view returns(uint[10][] memory){\n    return players[pdx].map;\n  }\n\n  function getMapAtPos(uint pdx, uint x,uint y) public view returns(uint) {\n    return players[pdx].map[x][y];\n  }\n\n  function setState(uint pdx, uint x,uint y, uint st) public {\n    players[pdx].state[x][y] = st;\n  }\n\n  function getStateAtPos(uint pdx, uint x,uint y) public view returns(uint){\n    return players[pdx].state[x][y];\n  }\n\n  function getState(uint pdx) public view returns(uint[10][] memory){\n    return players[pdx].state;\n  }\n}\n\n",
  "sourcePath": "/home/illuminati/dev/newfolder/contracts/Battleship.sol",
  "compiler": {
    "name": "solc",
    "version": "0.5.8+commit.23d335f2.Emscripten.clang"
  },
  "schemaVersion": "3.0.16",
  "updatedAt": "2019-11-27T17:53:01.061Z",
  "devdoc": {
    "methods": {}
  },
  "userdoc": {
    "methods": {
      "applySink(uint256,uint256)": {
        "notice": "applySink(index) iterate through state and change the value to SUNK"
      },
      "checkWin(uint256)": {
        "notice": "checkWin() returns true if sinkCount is 5, congratulations!"
      },
      "incrementHit(uint256,uint256)": {
        "notice": "incrementHit(index) increment the hit count for the ship that got hit type of ship that got hit"
      },
      "incrementSink(uint256)": {
        "notice": "incrementSink() increment the sink count"
      }
    }
  }
}